:0A0FF40000010202030304040505D6
:100ABD00C20EC20BC20DC20CE4F5B3F590F5901247
:100ACD0010DE90E680E020E105D20F12186F90E65F
:100ADD0080E030E704D2008002C200A200920F1223
:100AED000950121B86121B93751310751400751B7C
:100AFD0010751C1275111075121C751910751A3C94
:100B0D00751D10751E6490E680E030E71085111597
:100B1D00851216851917851A18D200800E8519159C
:100B2D00851A16851117851218C200D2E843D820F0
:100B3D0090E668E04409F090E65CE0443DF0D2AF09
:100B4D0090E680E020E105D20F12186F90E680E06C
:100B5D0054F7F0538EF8C20ED20F121A811219E803
:100B6D00121B3ED28CE4F55BF55CF53DF53CF53B97
:100B7D00F53AE47F0FFEFDFCAB3DAA3CA93BA83A3C
:100B8D00C312147E501F120D18EF64016017E53D5E
:100B9D002401F53DE4353CF53CE4353BF53BE435CE
:100BAD003AF53A80CDE47F08FEFDFCAB3DAA3CA9A9
:100BBD003BA83AD312147E4003752301C28C121543
:100BCD0041E4F53DF53CF53BF53A300C0512058356
:100BDD00C20C300E29120FFE5024C20E1219C32062
:100BED000B1690E682E030E704E020E1EF90E6821C
:100BFD00E030E604E020E0E412189E1212FE12111D
:030C0D009A80C703
:1005830090E6B9E070030206341470030206B12446
:10059300FE700302073424FB700302062E1470035B
:1005A300020628146073146076240560030207931F
:1005B300121BB1400302079F90E6BBE024FE6022BA
:1005C30014603324FD601114602224067048E5137F
:1005D30090E6B3F0E5148037E51B90E6B3F0E51C35
:1005E300802DE51590E6B3F0E5168023E51790E638
:1005F300B3F0E518801990E6BAE0FF1218CAAA060C
:10060300A9077B01EA494B600DEE90E6B3F0EF904A
:10061300E6B4F002079F020798121B6502079F12B8
:100623001B9B02079F1214A202079F121B53020770
:100633009F121BB3400302079F90E6B8E0247F603C
:100643001514601924027063A20BE43325E0FFA2A2
:100653000DE4334F8041E490E740F0803F90E6BCE7
:10066300E0547EFF7E00E0D394807C0040047D0153
:1006730080027D00EC4EFEED4F24F4F582740F3EB4
:10068300F583E493FF3395E0FEEF24A1FFEE34E618
:100693008F82F583E0540190E740F0E4A3F090E605
:1006A3008AF090E68B7402F002079F020798121BF0
:1006B300B5400302079F90E6B8E024FE60162402CB
:1006C300600302079F90E6BAE0B40105C20B02077C
:1006D3009F02079890E6BAE0705590E6BCE0547E1E
:1006E300FF7E00E0D394807C0040047D0180027D86
:1006F30000EC4EFEED4F24F4F582740F3EF583E4D7
:1007030093FF3395E0FEEF24A1FFEE34E68F82F5ED
:1007130083E054FEF090E6BCE05480131313541F9F
:10072300FFE0540F2F90E683F0E04420F0806D80CB
:1007330064121BB7506690E6B8E024FE60192402E9
:10074300705A90E6BAE0B40104D20B804F90E6BA37
:10075300E064026047803E90E6BCE0547EFF7E008A
:10076300E0D394807C0040047D0180027D00EC4E48
:10077300FEED4F24F4F582740F3EF583E493FF33CB
:1007830095E0FEEF24A1FFEE34E68F82F583800827
:10079300120080500790E6A0E04401F090E6A0E04C
:0307A3004480F09F
:0107A6002230
:03003300021BAD00
:041BAD0053D8EF32E8
:030003000212E105
:1012E100C0E0C083C082C2A890E6F574FFF090E62A
:0D12F10060E4F0751002D082D083D0E032AE
:101000001201000200000040D1160004020101029A
:1010100003010A060002000000400100090220004E
:1010200001010080320904000002FF0000000705F2
:1010300002020002000705860200020009022700E2
:1010400001010080320904000003FF0000000705D1
:1010500002024000000705860240000007058802E2
:1010600040000000040309041003530075007000E1
:10107000720065006D0061002203530046005500B8
:101080003300300030002D004F0043002800560090
:10109000650072002E00320029004203200020006B
:1010A0002000200020002000200020002000200040
:1010B0002000200020002000200020002000200030
:1010C0002000200020002000200020002000200020
:0E10D000200020002000200020002000000052
:100E200060802800010101010101010700000002AA
:100E30000202020007050705050505050000000080
:100E40000000003F0101010117010107000000003F
:100E50000100000007050705050505050000000065
:100E60001200003F0101013B0101010700000003E6
:100E70000202020007050705050505050000000937
:100E80000000003F0202023B0101010700000003D5
:100E90000202020007050705050505050000000917
:100EA0000000003F602428870000000000000000D0
:100EB0000000000000000000000000000000000032
:100EC00000000000000000000000000047288080B3
:060ED0000000058E4E003B
:1010DE0090E601748EF090E6F574FFF0902880E0B3
:1010EE0090E6F3F0902881E090E6C3F0902882E03D
:1010FE0090E6C1F0902883E090E6C2F0902885E05B
:10110E0090E6C0F0902886E090E6F4F075AF077494
:10111E0028F59A7400F59B759DE4E4F59EFF90E624
:10112E007BE090E67CF00FBF80F490E67174FFF0E8
:10113E00F5B490E672E04480F043B680000000E41F
:10114E0090E6C4F000000090E6C5F0902887E0908D
:10115E00E6C6F0902888E090E6C7F0902889E090E7
:10116E00E6C8F090288AE090E6C9F090288BE090CF
:10117E00E6CAF090288CE090E6CBF090288DE090B7
:0B118E00E6CCF090288EE090E6CDF05B
:011199002233
:03004300021300A5
:0300530002130095
:10130000021ACD00021B1300021AFD00021AE500AA
:101310000217D3000216AA00021BB900021BBA0072
:10132000021BBB00021BBC00021BBD00021BBE0057
:10133000021BBF00021BC000021BC100021BC20037
:10134000021BC300021BBA00021BC400021BC50023
:10135000021BC600021BC700021BC800021BC900FB
:10136000021BCA00021BBA00021BBA00021BBA0011
:10137000021BCB00021BCC00021BCD00021BCE00C7
:10138000021BCF00021BD000021BD100021BD200A7
:10139000021BD300021BD400021BD500021BD60087
:1013A000021BD700021BD800021BD900021BDA0067
:0813B000021BDB00021BDC0044
:10189E0090E682E030E004E020E60B90E682E03055
:1018AE00E119E030E71590E680E04401F07F147E08
:0C18BE000012161E90E680E054FEF0229E
:10186F00300F0990E680E0440AF0800790E680E0B0
:10187F004408F07FDC7E0512161E90E65D74FFF0C3
:0F188F0090E65FF05391EF90E680E054F7F0227F
:081B9300E4F562D2E9D2AF22B1
:10179B00AD0790E678E020E6F9C2E990E678E04400
:1017AB0080F0ED25E090E679F090E678E030E0F916
:1017BB0090E678E04440F090E678E020E6F990E699
:0817CB0078E030E1D6D2E922FA
:10183D00AC0790E678E020E6F9E562702390E67853
:10184D00E04480F0EC25E090E679F08D5DAF03A9E2
:10185D0007755E018A5F8960E4F561756201D322C7
:02186D00C32294
:10180900AC0790E678E020E6F9E562702590E67885
:10181900E04480F0EC25E0440190E679F08D5DAF7D
:1018290003A907755E018A5F8960E4F56175620342
:04183900D322C322D1
:03004B00020C1094
:100C1000C0E0C083C082C085C084C086758600C025
:100C2000D075D000C000C001C002C003C006C0071C
:100C300090E678E030E206756206020CFA90E678FB
:100C4000E020E10CE56264026006756207020CFABE
:100C5000E56224FE605F14603624FE7003020CEB34
:100C600024FC7003020CF724086003020CFAAB5E4C
:100C7000AA5FA960AF6105618F8275830012142F8E
:100C800090E679F0E561655D7070756205806B9046
:100C9000E679E0AB5EAA5FA960AE618E82758300E3
:100CA00012145C756202E55D6401704E90E678E0B6
:100CB0004420F08045E55D24FEB5610790E678E0CC
:100CC0004420F0E55D14B5610A90E678E04440F018
:100CD00075620090E679E0AB5EAA5FA960AE618EB6
:100CE0008275830012145C0561800F90E678E04401
:100CF00040F075620080037562005391DFD007D029
:100D000006D003D002D001D000D0D0D086D084D07D
:080D100085D082D083D0E032CF
:0218CA00A9076C
:1018CC00AE1DAF1E8F828E83A3E064037017AD0133
:1018DC0019ED7001228F828E83E07C002FFDEC3E8F
:0818EC00FEAF0580DFE4FEFF02
:0118F40022D1
:1019C30090E682E044C0F090E681F0438701000096
:0419D30000000022EE
:10161E008E428F4390E600E054187012E543240189
:10162E00FFE43542C313F542EF13F543801590E600
:10163E0000E05418FFBF100BE54325E0F543E542EB
:10164E0033F542E5431543AE42700215424E600536
:06165E001219D780EE22F4
:1019D7007400F58690FDA57C05A3E582458370F923
:0119E70022DD
:100ED600C100C107C108C105C106C181C103C10264
:0F0EE600C10901230002280000C10A02330000E5
:1009500090E600E054E74410F0E054FDF0000000A1
:10096000300F75E490E612F000000090E613F000FE
:10097000000090E61474E0F0000000E490E615F04A
:1009800000000090E6047480F00000007402F000A3
:1009900000007406F0000000E4F000000090E6188B
:1009A00004F00000007408F000000090E61AF00067
:1009B000000090E6197410F000000090E61BF000B3
:1009C00000001210DE00000090E6D27401F000007A
:1009D0000090E6E204020A5890E61274A2F00000C9
:1009E00000E490E613F000000090E61474E0F000DC
:1009F000000090E61574E2F000000090E6047480B8
:100A0000F00000007402F00000007404F000000028
:100A10007406F00000007408F0000000E4F000002C
:100A20000090E6187408F000000090E619F000004D
:100A30000090E61AF000000090E61BF000000012A3
:100A400010DE00000090E6D27402F000000090E694
:100A5000E2F000000090E6EAF000000090289AE042
:100A600090E6C7F000000090289DE090E6CBF000F3
:100A700000009028A1E090E60CF000000090289F74
:100A8000E090E6CCF00000009028A0E090E6CDF0E9
:100A9000000000C207C208C205C206C204E4F53560
:100AA000F536F531F53275240275258075380175F6
:0D0AB00039E0D201C203C202F523C20A22BE
:100F1C00754D00754E40C28CE4FCFDE5522554F530
:100F2C0052E5513553F551ED3550F550EC354FF543
:100F3C004FAF52AE51AD50FC781812148F8F3EAF9C
:100F4C0052AE51AD50AC4F781012148F8F3FAF5240
:100F5C00AE51AD50AC4F780812148F8F4085524172
:100F6C00754248754356754437754531754633752A
:100F7C004731300405E4F548800375480185234961
:100F8C00E5AC30E00CD3E5549470E553941740F085
:100F9C002274F8F59D7400F59EE4FFFE743E2FF864
:100FAC00E690E67CF00FBF00010EEF640C4E70EC87
:100FBC00C3EF954EEE954D500CE490E67CF00FBFD0
:100FCC0000010E80EBE54D90E698F0000000E54E38
:100FDC0090E699F0000000E5AA20E60BD3E55494C6
:070FEC0070E553941740F07B
:010FF30022DB
:101A2D00AC0600000090E6D0ECF0000000EF90E670
:0C1A3D00D1F000000075BB040000002286
:10199D00AC0600000090E6D0ECF0000000EF90E601
:1019AD00D1F0000000121A0B00000075BB060000FC
:0619BD00007E007F012204
:1007A700300767C207D208E4F52AF52B751001D286
:1007B70088D2A890E66004F0000000C28CE4F558E7
:1007C700F557F556F555D28C00000090E6D004F0A9
:1007D700000000E490E6D1F000000075BB040000C3
:1007E70000E5BB20E71BE47F287E23FDFCAB58AA6E
:1007F70057A956A855D312147E40030208F6208045
:10080700E00000002080B4751002C2A8E51024FDA6
:1008170070030208BE1470030208D01470030208A4
:10082700FC1470030209052404600302094FC28CFB
:10083700E4F558F557F556F555D28C00000090E6CB
:10084700D07419F000000090E6D17464F000000045
:1008570075BB04000000E5BB20E71F308005C20818
:10086700D20722E47F287E23FDFCAB58AA57A9565E
:10087700A855D312147E40DE807520801EE47F28A1
:100887007E23FDFCAB58AA57A956A855D312147E50
:100897004002805B7F0112194B80DF7510037F2CAC
:1008A7007E0B121A2DE4F552F551F550F54FC28C17
:1008B700F553F554D28C22E5BB20E70302094F75A7
:1008C70010047FD07E00021A2DE5BB30E77AC3E51E
:1008D7002B94E0E52A94015013052BE52B700205B4
:1008E7002A7526027527807510068022120F1CE4D0
:1008F700F510C20822E5BB30E74E75100622E5BBAE
:1009070030E745E5274526700575100380A9E5AC56
:1009170020E035D3E5279400E526940240137F00B5
:100927007E0212199DE42527F52774FE3526F52644
:1009370022D3E5279400E5269400400CAF27AE2686
:0809470012199DE4F526F527C5
:01094F002285
:10119A00200303021254300205C202120D18300154
:1011AA006CC2017F807E1A7D067C00AB2FAA2EA915
:1011BA002DA82CC312147E40087F807E4F7D12809A
:1011CA00427FE07E937D047C00AB2FAA2EA92DA836
:1011DA002CC312147E40087FE07EC87D1080247FD5
:1011EA00407E0D7D037C00AB2FAA2EA92DA82CC30F
:1011FA0012147E40087F407E427D0F80067FA07ECB
:10120A00BB7D0D7C001213B8C20F121B7720070694
:10121A00200A033008051207A7801FE5BB30E71A2A
:10122A00000000E490E6D0F000000090E6D174C01F
:10123A00F000000075BB040000002005051218F537
:0B124A009205200605121920920622D2
:020FFE00D322FC
:0212FE00D322F9
:021BB100D3223D
:1014A20090E680E030E71800000090E6247402F035
:1014B200000000E490E625F0000000D200802A003F
:1014C2000000E490E624F000000090E6257440F06D
:1014D200000000000000E490E626F000000090E624
:1014E200277440F0000000C20090E6BAE0F537D35E
:0114F20022D7
:101B530090E740E537F0E490E68AF090E68B04F0F6
:021B6300D3228B
:081B9B0090E6BAE0F522D32226
:101B650090E740E522F0E490E68AF090E68B04F0F9
:021B7500D32279
:021BB300D3223B
:021BB500D32239
:021BB700D32237
:10008000D28CE4F55BF55C90E6B9E0243FB4150052
:1000900040030205749000A375F003A4C58325F006
:1000A000C5837302057F0200E202011B02014D02BB
:1000B000017D0201960203DD0203FD0204560204E3
:1000C000730204C002051002054902023D02031832
:1000D00002048F02018B0201F302021802025C0289
:1000E0000384E490E68AF090E68BF090E6A0E0309E
:1000F000E10CD3E55C94F4E55B940140EE2290E6DC
:100100008BE06401600302057F90E740E06004D269
:100110000F8002C20F121B7702057FE490E68AF07F
:1001200090E68BF090E6A0E030E10CD3E55C94F42F
:10013000E55B940140EE2290E68BE06402600302EE
:10014000057F90E740E0FFA3E0FD020312E490E6A4
:100150008AF090E68BF090E6A0E030E10CD3E55C0D
:1001600094F4E55B940140EE2290E68BE06401603C
:100170000302057F90E740E0F53002057FAF3012C3
:1001800019768F3E90E740E53E8007A200E4339069
:10019000E740F00204B0E490E68AF090E68BF0903D
:1001A000E6A0E030E10CD3E55C94F4E55B9401401B
:1001B000EE2290E68BE0B4031E90E740E0FD7F2541
:1001C000121AB490E741E0FD7F26121AB490E7427C
:1001D000E0FD7F27121AB400000090E6F574FFF0EE
:1001E00000000090E6047406F0000000C208D20788
:1001F00002057FE490E68AF090E68BF090E6A0E0BE
:1002000030E10CD3E55C94F4E55B940140EE229080
:10021000E68BE0D20A02057FE490E68AF090E68B56
:10022000F090E6A0E030E10CD3E55C94F4E55B945B
:100230000140EE2290E68BE0C20A02057FE490E6E0
:100240008AF090E68BF090E6A0E020E10302057FC3
:10025000D3E55C94F4E55B940140EB22E490E68AFC
:10026000F090E68BF090E6A0E030E10CD3E55C94F2
:10027000F4E55B940140EE2290E68BE0640C6003B1
:1002800002057F90E740E0753200F531A3E042328D
:10029000A3E0753600F535A3E04236A3E0752500EE
:1002A000F524A3E04225A3E0753900F538A3E04228
:1002B00039A3E0FD7F25121AB490E749E0FD7F26BF
:1002C000121AB490E74AE0FD7F27121AB490E74B68
:1002D000E07004D2048002C204E535FD7F10121ADA
:1002E000B4AD367F11121AB4E531FD7F12121AB483
:1002F000AD327F13121AB4E538FD7F14121AB4AD73
:10030000397F15121AB4E524FD7F16121AB4AD25F3
:100310007F17121AB402057FE490E68AF090E68B0C
:10032000F090E6A0E030E10CD3E55C94F4E55B945A
:100330000140EE2290E68BE06408600302057F90A6
:10034000E740E0753200F531A3E04232A3E07536B4
:1003500000F535A3E04236A3E0752500F524A3E0BF
:100360004225A3E0753900F538A3E04239E425368B
:10037000F536E43535F535E42532F532E43531F539
:100380003102057FE490E68AF090E68BF090E6A0DB
:10039000E030E10CD3E55C94F4E55B940140EE229F
:1003A00090E68BE0F53FD394024003753F02E4F5FD
:1003B0003EE53EC3953F400302057F7E00E567258D
:1003C0003EFFEE3566FE7440253EF9E434E7FA7BE5
:1003D000017D01121761000000053E80D47B017A87
:1003E000E779407D02AF67AE6612158D000000E42C
:1003F00090E68AF090E68B7402F002057FE490E6C6
:100400008AF090E68BF090E6A0E030E10CD3E55C5A
:1004100094F4E55B940140EE2290E68BE0F53FD347
:1004200094204003753F20E4F53EE53EC3953F40F0
:100430000302057F7E00E564253EFFEE3563FE7412
:1004400040253EF9E434E7FA7B017D011217610093
:100450000000053E80D47B017AE779407D20AF64BF
:10046000AE6312158DE490E68AF090E68B7420F06E
:1004700002057FE490E740F0300506E04401F0C259
:100480000530060990E740E04402F0C2068021E40E
:1004900090E740F01218F5500990E740E04401F071
:1004A000C205121920500990E740E04402F0C2064C
:1004B000000000E490E68AF090E68B04F002057FED
:1004C000E490E68AF090E68BF090E6A0E030E10C54
:1004D000D3E55C94F4E55B940140EE2290E68BE07A
:1004E0006402600302057F90E740E07011A3E0B46E
:1004F0000104D20F8002C20F121BA302057F90E7F6
:1005000041E0B40104D20F8002C20F121BA8806F19
:10051000E490E68AF090E68BF090E6A0E030E10C03
:10052000D3E55C94F4E55B940140EE2290E68BE029
:100530006401704B90E740E0B40107D20F121A81BA
:10054000802DC20F121A818036E490E68AF090E680
:100550008BF090E6A0E030E10CD3E55C94F4E55B31
:10056000940140EE2290E68BE0FF200302C32212AA
:1005700019E8800BE490E68AF090E68BF0D322C273
:020580008CC32A
:010582002256
:101ACD00C0E0C083C082D20C5391EF90E65D7401EB
:081ADD00F0D082D083D0E0328A
:101AFD00C0E0C083C0825391EF90E65D7404F0D0D6
:061B0D0082D083D0E0321B
:101B1300C0E0C083C0825391EF90E65D7402F0D0C1
:061B230082D083D0E03205
:1017D300C0E0C083C082851915851A1685168285D7
:1017E3001583A37402F08511178512188518828555
:1017F3001783A37407F05391EF90E65D7410F0D054
:0618030082D083D0E03228
:101AE500C0E0C083C082D20E5391EF90E65D7408CA
:081AF500F0D082D083D0E03272
:1016AA00C0E0C083C08290E680E030E72085111553
:1016BA00851216851682851583A37402F08519177B
:1016CA00851A18851882851783A37407F05391EF3A
:0D16DA0090E65D7420F0D082D083D0E03225
:011BB90032F9
:011BBA0032F8
:011BBB0032F7
:011BBC0032F6
:011BBD0032F5
:011BBE0032F4
:011BBF0032F3
:011BC00032F2
:011BC10032F1
:011BC20032F0
:011BC30032EF
:011BC40032EE
:011BC50032ED
:011BC60032EC
:011BC70032EB
:011BC80032EA
:011BC90032E9
:011BCA0032E8
:011BCB0032E7
:011BCC0032E6
:011BCD0032E5
:011BCE0032E4
:011BCF0032E3
:011BD00032E2
:011BD10032E1
:011BD20032E0
:011BD30032DF
:011BD40032DE
:011BD50032DD
:011BD60032DC
:011BD70032DB
:011BD80032DA
:011BD90032D9
:011BDA0032D8
:011BDB0032D7
:011BDC0032D6
:101A0B00902899E090E6C6F000000090289BE090AB
:101A1B00E6C8F000000090289CE090E6C9F00000BA
:021A2B00002297
:1019E800C2817F207E4E7D007C001213B8D28143D5
:1019F800B20C43800C7F107E277D007C001213B848
:031A0800D20222E5
:101A8100300F06C287D203800C43B20C5380F3D2CD
:0A1A910087C281C2037F0F02194BC8
:0F1B770043B240438040300F03D28622C2862201
:051BA300A20F92B02228
:051BA800A20F92B12222
:1018F500E4F541308402C322E4F540208402054129
:101905007F017E0012161E0540E540C394C840EBDA
:0A191500E541D394324002D322C30F
:01191F0022A5
:10192000E4F541308502C322E4F5402085020541FB
:101930007F017E0012161E0540E540C394C840EBAF
:0A194000E541D394324002D322C3E4
:01194A00227A
:0D1B860075B2CE7580C075B5FFE4F5B022D4
:10194B00E490E6D0F000000090E6D1EFF00000004C
:10195B0075BB04000000E5BB30E7FB000000000096
:0B196B0000000000000000000000224F
:1013B8008F438E428D418C40300033E47FFAFEFD2E
:1013C800FCAB43AA42A941A840D312147E40527FE5
:1013D800FA12194BE54394FAF543E5429400F542B5
:1013E800E5419400F541E5409400F54080CDE47F67
:1013F80010FEFDFCAB43AA42A941A840D312147EBB
:10140800401F7F1012194BE5439410F543E54294B1
:1014180000F542E5419400F541E5409400F540802F
:07142800CDAF4312194B2266
:0416E7007F057E00FD
:1016EB00E4FDFCC3ED9FEC9E501EE5BB20E70CD345
:1016FB00E55C94F4E55B940140F02290E6F1E0F5B3
:10170B00410DBD00010C80DBE5BB20E70BD3E55C95
:08171B0094F4E55B940140F039
:0117230022A3
:101A9B00D2821216E7D2837F0F1216EBC2837F0618
:091AAB001216EBC2821F0216EBB9
:101B2900D2827F0F7E001216EBC2837F0A1216EB58
:051B3900D2830216EB4F
:10172400E4FB53B2F75380F77F05FE1216EBE4FA9D
:10173400D2827F0F7E001216EBEB25E0FBE58030B2
:10174400E303430301C2827F0F7E001216EB0ABA41
:0C17540008DE1216E743B208C283AF03A0
:011760002266
:02166400AB07D2
:101666001216E7E4FAEB30E704D2838002C2837FE6
:10167600087E001216EBD282EB25E0FB1216EBC2B7
:10168600820F1216EB0ABA08DC1216E753B2F753AA
:1016960080F7D2827F0A1216EBC2827F081216EBFF
:0316A60043B20844
:0116A900221E
:02197600A907BF
:10197800E4FB121A9B7F22121664AF01121664123E
:1019880016E7121A9B7F23121664121724AB07124C
:041998001B29AF0355
:01199C002228
:101AB4008F40A905121A9B7F22121664AF4012169A
:091AC40064AF01121664021B2933
:100D1800E4FF121976EF640260037F00227D087FEA
:100D280001121AB47D507F02121AB47D067F031295
:100D38001AB4E4FD7F10121AB4E4FD7F11121AB43C
:100D4800E4FD7F12121AB4E4FD7F13121AB47D0178
:100D58007F14121AB47DE07F15121AB47D027F1633
:100D6800121AB47D807F17121AB4E4FD7F20121A7C
:100D7800B47DD07F21121AB4E4FD7F22121AB47D0B
:100D8800087F23121AB430000B752F80752E1A7540
:100D98002D068009752FE0752E93752D04752C008E
:100DA800AF2FAE2EAD2DAC2C781012148FAD077F5F
:100DB80025121AB4AF2FAE2EAD2DAC2C7808121414
:100DC8008FAD077F26121AB4AD2F7F27121AB47D74
:100DD800487F30121AB47D107F31121AB47D107F0B
:100DE80032121AB47D107F33121AB47D177F341271
:100DF8001AB47D7F7F35121AB47DFF7F40121AB472
:100E08007D7F7F41121AB47D7F7F42121AB47D7FA5
:080E18007F43121AB47F01228E
:0E0EF50001650001685002630021026600459D
:1015410090E678E05418FFBF101275650175685177
:1015510075633C75642175660C756745E4F53EE578
:101561003E75F002A47BFF249CF9741035F0FA7EDD
:1015710000E564253EFFEE3563FE7D0112158D0009
:0B1581000000053EE53EC3942040D46E
:01158C00223C
:0615D700AB07AA06AC05FB
:1015DD00E4FDE565600F7E000DEE24ABF582E4348D
:1015ED0028F583EAF0AE050D74AB2EF582E43428B0
:1015FD00F583EBF0AF050D74AB2FF582E43428F5D0
:10160D0083ECF07A287BABAF68121A65AF680217CE
:01161D009B31
:0C1761008E408F418D428B438A448945A5
:10176D00E4F546E546C3954250230541E541AE40BB
:10177D007002054014FFAB43AA44A9458546827506
:0D178D00830012142FFD1215D7054680D6DB
:01179A00222C
:0C158D008E408F418D428B438A4489457B
:10159900E4F546FDE5656012E540FF7E000DEE24A9
:1015A900ABF582E43428F583EFF0AE050D74AB2E6C
:1015B900F582E43428F583E541F07A287BABAF68FE
:0E15C900121A65AA44AB45AD42AF68021A493A
:100F030002530000045500000000025B0000025978
:080F13000000044F0000000083
:03000B000214F3E9
:1014F300C0E0C0D075D008C28C055AE55AAE597009
:1015030002055914D3940DEE9400402B75590075C0
:101513005A000554E55470020553E5582401F55863
:10152300E43557F557E43556F556E43555F5550585
:0E1533005CE55C7002055BD28CD0D0D0E0325B
:101B3E00E4F58CF58A438902D28CD2A9D2AFC28C3D
:051B4E00F553F55422DF
:101A4900121809E56224FA600E146006240770F37F
:0C1A5900D322E4F562D322E4F562D3222C
:101A650012183DE56224FA600E146006240770F32F
:0C1A7500D322E4F562D322E4F562D32210
:0300000002125594
:0C125500787FE4F6D8FD75816802129CD9
:10142F00BB010CE58229F582E5833AF583E0225072
:10143F0006E92582F8E622BBFE06E92582F8E222BC
:0D144F00E58229F582E5833AF583E49322D6
:10145C00F8BB010DE58229F582E5833AF583E8F0C6
:10146C00225006E92582C8F622BBFE05E92582C872
:02147C00F2225A
:10147E00EB9FF5F0EA9E42F0E99D42F0E89C45F0C4
:01148E00223B
:10148F00E8600FECC313FCED13FDEE13FEEF13FF3B
:03149F00D8F1225F
:10126100020ABDE493A3F8E493A34003F68001F2DC
:1012710008DFF48029E493A3F85407240CC8C3338E
:10128100C4540F4420C8834004F456800146F6DF5D
:10129100E4800B0102040810204080900E20E47EBF
:1012A100019360BCA3FF543F30E509541FFEE49352
:1012B100A360010ECF54C025E060A840B8E493A319
:1012C100FAE493A3F8E493A3C8C582C8CAC583CA44
:1012D100F0A3C8C582C8CAC583CADFE9DEE780BEFC
:010F1B0000D5
:00000001FF
