:03004300021300A5
:0300530002130095
:10130000021BCB00021C1C00021C0900021BE00097
:10131000021AB300021AD500021C8B00021C8C00BA
:10132000021C8D00021C8E00021C8F00021C90000B
:10133000021C9100021C9200021C9300021C9400EB
:10134000021C9500021C8C00021C9600021C9700D7
:10135000021C9800021C9900021C9A00021C9B00AF
:10136000021C9C00021C8C00021C8C00021C8C00C5
:10137000021C9D00021C9E00021C9F00021CA0007B
:10138000021CA100021CA200021CA300021CA4005B
:10139000021CA500021CA600021CA700021CA8003B
:1013A000021CA900021CAA00021CAB00021CAC001B
:0813B000021CAD00021CAE009E
:0F1B9D000B0A3230313130383033303100C1046F
:1015E40090E740F0E490E68AF090E68B22D3E5534E
:1015F40094F4E5529401225391EF90E65D22FFE4C6
:1016040033FE7440252FF9E434E7FA7B017D01228F
:1016140090E68BE0640122853E42853F4385464443
:1016240085474522854642854743853E44853F4557
:10163400227440252FF582E434E7F58322D3E55361
:1016440094E8E55294032290E68BE0FFE52FC39FD4
:08165400227B017AE7794022B4
:10156C0090E600E054E74408F090E60174C8F000FF
:10157C00000090E600E04402F000000090E60B74DE
:10158C0001F000000090E609E04404F090E61274CB
:10159C00F0F000000090E61474E0F000000090E61B
:1015AC00047480F00000007402F00000007406F077
:1015BC00000000E4F000000090E618F0000000903D
:1015CC00E619F000000090E61A740CF0000000E43C
:0815DC0090E61BF00000002264
:101B8500C205C200C209C202E4F509C207D20AD2DF
:081B950001C208C206C20322CE
:1017C50075B2FF53B2FE5380FE43800153B2FD5301
:1017D50080FD43B20453B2FBE58030E2FB53B2FB1C
:1017E500E58030E2FB43B20843800843800843B2FA
:1017F5008053807F53807F43B50143B00143B001DF
:0118050022C0
:01008F00224E
:101BB500300F07D20553807F8005C2054380807FA3
:061BC500057E000212B8CB
:0B008000300F0453B0FE2243B00122F9
:101209007F2C7E0112129B7B061212A87F647E003E
:1012190012129B7B0A1212A87F647E001212B8E494
:10122900FB7D08FF121B167D071212B07B067D4E4F
:10123900E4FF121B167BFF7D4FE4FF121B167BA0F8
:101249007D50E4FF121B167B087D51E4FF121B162B
:101259007B107D66E4FF121B167B107D67E4FF128D
:101269001B167D701212B07B037D71E4FF121B16F1
:101279007B337D56E4FF121B167B077DA0E4FF122A
:101289001B167B097DA0E4FF121B167FF47E010269
:1012990012B81212B87B087DA0E4FF121B16227D3A
:0F12A900A0E4FF121B16227B03E4FF121B162288
:101B6C00E58020E00BC202E5AA30E502D208C322D0
:091B7C00200204D202D322C3228C
:10107600300A1D300107C201D20F120080C31215BB
:10108600F25003021142C20AC20F120080D28C2211
:1010960020050302114230000BC20012012CEF7032
:1010A6000343090112172ED204121B6C40030211CE
:1010B6004230092190E6A9E020E103021142C2096B
:1010C600D207E4F509C20890E6A5E054FEF090E6E2
:1010D6000174CB805D30076490E60174C8F00000AF
:1010E60000C207300851430910C20890E61274F096
:1010F600F000000090E61474E0F000000090E604B2
:101106007480F00000007402F00000007406F00025
:101116000000E4F000000090E618F000000090E601
:1011260019F000000090E61A740CF0000000E4903C
:0D113600E61BF000000022C20F1211432240
:10114300300F6EE4F552F55390E680E030E734E477
:10115300FEFFC3EF94DFEE94024003021208E5AAF8
:1011630020E51690E6987402F0000000E490E699FA
:10117300F00000000FBF00010E12164140030212DF
:101183000880CFE4FEFFC3EF94F8EE94165076E5A3
:10119300AA20E516E490E698F000000090E6997422
:1011A30040F00000000FBF00010E121641505680A0
:1011B300D5753348753456753537753631753733CC
:1011C30075383185093AE4FD90E6A5E020E332E481
:1011D300FEFF742F2FF8E6FC74002FF58274F83E9F
:1011E300F583ECF00FBF00010EEF640C4E70E3E4E7
:1011F30090E698F000000090E6997440F00000003B
:05120300220DBDC8C36F
:0112080022C3
:10172E00E58030E104D2068002C206A20330060133
:10173E00B34010D3E5559450E5549400402FE4F592
:10174E0054F555A2069203E4FF90E6A3E030E219A9
:10175E00A203E43390F000F0E490E690F000000075
:0D176E0090E69104F0000000220FBF01DCA6
:01177B00224B
:0212FE00D322F9
:021C7F00D3226E
:021C8100D3226C
:1019B40090E680E030E70F90E6247402F000000027
:1019C400E490E625800DE490E624F000000090E623
:0F19D400257440F000000090E6BAE0F51AD32227
:091C5D00E51A1215E404F0D3228B
:081C6F0090E6BAE0F508D3226B
:091C6600E5081215E404F0D32294
:021C8300D3226A
:021C8500D32268
:021C8700D32266
:1007A400E4F552F55390E6B9E012142A07F9C208A9
:1007B40024C30843C4085FC5087EC608F8C7090FE8
:1007C400C80939C90950CC09B1CD0866D108A1D2EC
:1007D40008B7D308CBD509CFD60A28D70A43D80AF5
:1007E40095D90ADFDB0ABADC0B59DD0B81DE0B9FDE
:1007F400DF00000BBF1215E8F090E6A0E030E10640
:100804001215F140F4221216146003020BC390E790
:1008140040E06004C20F8002D20F120080020BC3BA
:100824001215E8F090E6A0E030E1061215F140F46C
:100834002290E68BE064026003020BC3020B721287
:1008440015E8F090E6A0E030E1061215F140F4223C
:100854001216146003020BC3020B97AD187F4202F9
:100864000BA390E680E030E70990E7407401F002C2
:100874000BAEE490E740F0020BAE1215E8F090E600
:10088400A0E030E1061215F140F422D2092007035A
:10089400020BC37F967E001212B8020BC31215E836
:1008A400F090E6A0E030E1061215F140F422D209FE
:1008B400020BC31215E8F090E6A0E020E103020B5E
:1008C400C31215F140F1221215E8F090E6A0E030D1
:1008D400E1061215F140F422E4F52F12164B400301
:1008E400020BC3E52F24451216021218060000005D
:1008F400052F80E71216557D027F457E001218B73A
:100904000000001215E87402020BB51215E8F0900D
:10091400E6A0E030E1061215F140F422E4F52F12CE
:10092400164B4003020BC3E52F24211216021218A2
:1009340006052F80EA1216557D207F217E001218AD
:10094400B70000001215E87420020BB51215E8F088
:1009540090E6A0E030E1061215F140F422121614DC
:100964006003020BC390E740E064017027D20F12CA
:100974001BB57F057E001212B890E600E04402F039
:1009840012008F43800853B2FBE58030E2FB53B280
:10099400FE020BC35380F090E600E054FDF07F05A7
:1009A4007E001212B8C20F121BB5020BC31215E857
:1009B400F090E6A0E030E1061215F140F4222005A3
:1009C40002C32212008FD200020BC31215E8F0906A
:1009D400E6A0E030E1061215F140F42290E740E091
:1009E400F516A3E0F51D90E68BE0D39402500302C4
:1009F4000BC3E4F52FE52FC3951D4003020BC3E59C
:100A0400162450FFE433FE7C00EF252FFFEC3EFE5E
:100A14007442252FF9E434E7FA7B017D01121806AC
:100A2400052F80D1E5162450FFE433FE121655AD90
:100A34001D1218B70000001215E8E51D020BB512CF
:100A440015E8F090E6A0E030E1061215F140F4223A
:100A540090E740E0F515A3E0751C00F51BA3E04208
:100A64001CA3E0F51990E68BE0D394045003020B29
:100A7400C3E519FB7A00C00279447535017536E780
:100A8400753744D002AD1CAC1BAF151216C5020B52
:100A9400C3E519FB7A00C00279407535017536E764
:100AA400753740D002AD1CAC1BAF15121450121593
:100AB400E8E519020BB5E4F52F740A252FF8E6FFD3
:100AC400121635EFF0052FE52FB40AEDA204E43336
:100AD40090E74A1215E7740B020BB520095E200754
:100AE4005B7B81120BC590E740120BD490E7411257
:100AF4000BDE90E742120BE890E743120BF290E70B
:100B040044120BFC90E745EFF07B82120BC590E793
:100B140046120BD490E747120BDE90E748120BE81D
:100B240090E749120BF290E74A120BFC90E74BEF67
:100B3400F00000001215E8740C020BB5E4F52F1256
:100B44001635E4F0052FE52FB40CF400000012155F
:100B5400E8740C805C1215E8F090E6A0E030E10641
:100B64001215F140F42290E68BE06402705190E794
:100B740040E0FDA3E0FB7F42121B1680421215E801
:100B8400F090E6A0E030E1061215F140F4221216CE
:100B940014702C90E740E0F5188024AD18E4FF129F
:100BA400191F8F2F90E740E52FF00000001215E881
:100BB40004F090E6A0E04480F080041215E8F0C34D
:100BC400227D81E4FF121B167D82E4FF12191F228D
:100BD400EFF07D83E4FF12191F22EFF07D84E4FF20
:100BE40012191F22EFF07D85E4FF12191F22EFF086
:100BF4007D86E4FF12191F22EFF07D87E4FF1219AE
:020C04001F22AD
:101BCB00C0E0C083C082D20C1215FB7401F0D0822E
:051BDB00D083D0E032D0
:101C0900C0E0C083C0821215FB7404F0D082D08377
:031C1900D0E032E6
:101C1C00C0E0C083C0821215FB7402F0D082D08366
:031C2C00D0E032D3
:101AB300C0E0C083C08290E680E030E70512161BC9
:101AC30080031216281215FB7410F0D082D083D035
:021AD300E032FF
:101BE000C0E0C083C082D20E1215FB7408F0D08210
:051BF000D083D0E032BB
:101AD500C0E0C083C08290E680E030E70512161BA7
:101AE50080031216281215FB7420F0D082D083D003
:021AF500E032DD
:011C8B003226
:011C8C003225
:011C8D003224
:011C8E003223
:011C8F003222
:011C90003221
:011C91003220
:011C9200321F
:011C9300321E
:011C9400321D
:011C9500321C
:011C9600321B
:011C9700321A
:011C98003219
:011C99003218
:011C9A003217
:011C9B003216
:011C9C003215
:011C9D003214
:011C9E003213
:011C9F003212
:011CA0003211
:011CA1003210
:011CA200320F
:011CA300320E
:011CA400320D
:011CA500320C
:011CA600320B
:011CA700320A
:011CA8003209
:011CA9003208
:011CAA003207
:011CAB003206
:011CAC003205
:011CAD003204
:011CAE003203
:02184300AC05F2
:10184500E4FD7E000DEE2400F582E43428F583EFF7
:10185500F00000000D74002401F582E43428F583BE
:10186500ECF00000007A287B007F50121B5000002E
:09187500007F5012187F000000F2
:01187E002247
:0C1806008E308F318D328B338A3489355F
:10181200E4F536E536C3953250260531E531AE3072
:101822007002053014FFAB33AA34A93585368275B0
:1018320083001213B8FD121843000000053680D34E
:011842002283
:0818B7008D308B318A32893338
:1018BF00E4FD7E000DEE2400F582E43428F583EF7D
:1018CF00F07A287B007F50121B50000000AA32AB29
:0B18DF0033AD307F50121B34000000BE
:0118EA0022DB
:0A1C5300000102020303040405056A
:10165C00EC4EFEED4F2453F582741C3EF583E4935F
:10166C00FF3395E0FEEF24A1FFEE34E68F82F58385
:10167C002290E6BCE0547EFF7E00E0D394807C0098
:10168C0022F0E5262401F526E43525F525E435245C
:10169C00F524E43523F52322AF2AAE29AD28AC2757
:1016AC00AB26AA25A924A823C3021419E52C2526A8
:0916BC00F582E52B3525F58322AA
:100C0600C20EC20BC20DC20C90E680E020E105D2F6
:100C16000F1219E312156C1217C5121B85121C77D9
:100C2600D20F121BB51212097E007F908E408F41A3
:100C36007548007549A2753E00753FAC754600754E
:100C460047CC754A00754BEC90E680E030E71B8593
:100C56003E42853F4385464485474590E6247402D7
:100C6600F0000000E490E62580198546428547435A
:100C7600853E44853F45E490E624F000000090E67A
:100C8600257440F0000000EE54E07003020D497533
:100C96002B00752C807E007F908E2D8F2EC3742A9C
:100CA6009FFF74019ECF2402CF3400FEE48F2A8E6C
:100CB60029F528F527F526F525F524F5231216A49A
:100CC600500A1216B874CD12168D80F1E4F526F589
:100CD60025F524F5231216A45017E52E2526F582B0
:100CE600E52D3525F583E0FF1216B8EF12168D8037
:100CF600E4852B40852C4174902480FF740034FFDA
:100D0600FEC3E5499FF549E5489EF548C3E5439F7F
:100D1600F543E5429EF542C3E5459FF545E5449E0C
:100D2600F544C3E53F9FF53FE53E9EF53EC3E547E7
:100D36009FF547E5469EF546C3E54B9FF54BE54ACD
:100D46009EF54AD2E843D82090E668E04409F000D0
:100D5600000090E65CE0443DF0000000D2AF90E673
:100D660080E020E105D20F1219E390E680E054F707
:100D7600F0538EF8D200121C41D28CE4F552F55392
:100D8600F552F553C20E300C05120DC5C20C300ECD
:100D9600291212FE5024C20E121A8E200B1690E64D
:100DA60082E030E704E020E1EF90E682E030E604FE
:0F0DB600E020E0E4121A12121C7F12107680C7A0
:100DC50090E6B9E07003020E76147003020ECA2491
:100DD500FE7003020F2424FB7003020E70147003CF
:100DE500020E6A14607314607624056003020F5ABC
:100DF500121C814003020F6690E6BBE024FE6022D0
:100E050014603324FD601114602224067048E54007
:100E150090E6B3F0E5418037E54890E6B3F0E54963
:100E2500802DE54290E6B3F0E5438023E54490E666
:100E3500B3F0E545801990E6BAE0FF121A3EAA061E
:100E4500A9077B01EA494B600DEE90E6B3F0EF9000
:100E5500E6B4F0020F66020F5F121C66020F6612FF
:100E65001C6F020F661219B4020F66121C5D020F89
:100E750066121C834003020F6690E6B8E0247F608B
:100E8500151460192402703AA20BE43325E0FFA281
:100E95000DE4334F8018E490E740F0801612167D7C
:100EA50040047D0180027D0012165CE0540190E74C
:100EB50040F0E4A3F090E68AF090E68B7402F0022D
:100EC5000F66020F5F121C854003020F6690E6B89D
:100ED500E024FE601624026003020F6690E6BAE085
:100EE500B40105C20B020F66020F5F90E6BAE0700F
:100EF5002C12167D40047D0180027D0012165CE0F7
:100F050054FEF090E6BCE05480131313541FFFE029
:100F1500540F2F90E683F0E04420F08044803B128C
:100F25001C87503D90E6B8E024FE6019240270311C
:100F350090E6BAE0B40104D20B802690E6BAE064EC
:100F450002601E801512167D40047D0180027D0021
:100F550012165C80081207A4500790E6A0E0440131
:080F6500F090E6A0E04480F0EA
:010F6D002261
:0300330002008B3D
:04008B0053D8EF3225
:10012C007D0A7F4212191FEF647660037F00227DE7
:10013C00121207137F647E001212B87D0912061A80
:10014C007B7F7DC17F42121B167BC01207527D3A0A
:10015C001206AD7D3D1206427D1212068D7B4012B9
:10016C00064A7D191206957B7A7D1A7F42121B1660
:10017C007D031206617D3E12073B7D7212073B7DAB
:10018C00731206CF7DA21207627D0D1206697B7871
:10019C007D9F7F42121B167B687DA07F42121B162F
:1001AC007DA11206BD7BD87DA67F42121B167BD883
:1001BC007DA77F42121B167BF07DA87F42121B1677
:1001CC007B907DA97F42121B167B147DAA7F421265
:1001DC001B167B617D0E7F42121B167B4B7D0F7FA6
:1001EC0042121B167D161207627B177D1E7F421270
:1001FC001B167B027D2112076A7D227F42121B1681
:10020C007B077D297F42121B167D3312069D7B0BCB
:10021C007D357F42121B167B1D7D377F42121B16CC
:10022C007B717D387F42121B167B2A7D397F4212EF
:10023C001B167B787D3C1207237D4D7F42121B16CB
:10024C007D4E1206B57D691206427D6B12072B7D21
:10025C00741206717B4F7D8D7F42121B167D8E12A0
:10026C0006797D8F7F42121B167D901206A5E4FB4A
:10027C007D911206527D9A1207137B847DB07F42CA
:10028C00121B167B0C7DB17F42121B167B0E7DB2AE
:10029C007F42121B167B827DB37F42121B167DB8E8
:1002AC0012072B7D431207727BF27D447F42121B97
:1002BC00167B397D457F42121B167D4612078A7BC1
:1002CC003D7D477F42121B167B557D487F42121B9A
:1002DC00167B837D597F42121B167D5A12074A7B6F
:1002EC00CD7D5B7F42121B167B8C7D5C7F42121B8B
:1002FC00167B777D5D7F42121B167B167D5E7F42DF
:10030C00121B167D6C1207727B657D6D7F42121B72
:10031C00167B117D6E7F42121B161206C57B807DEB
:10032C00577F42121B167B087D41120743FB7D3F12
:10033C007F42121B167D7512077A7B607D76120741
:10034C0043FB7D4C7F42121B167D771206F9120778
:10035C009A7D4B1207017B307DC91206221206EFE3
:10036C007B117D347F42121B167B127D3B7F421228
:10037C001B167B887DA41206527D9712071B7B20CF
:10038C007D987F42121B167B307D997F42121B1683
:10039C007B847D9A7F42121B167B297D9B7F4212A8
:1003AC001B167B037D9C7F42121B167B997D9D7FC8
:1003BC0042121B167B7F7D9E7F42121B167D78128C
:1003CC00077A7D7912068D7DC81206CF7D791207CA
:1003DC00337DC812061A7D791206717B7E12078254
:1003EC007D791206611206837D7912069D7DC812F5
:1003FC0006F97D791206AD7DC81207337D79120797
:10040C004A7DC81206B57D791207011206837D79E3
:10041C001206957BC01207827D791206BD7DC8122B
:10042C0006697B057D797F42121B167DC812071B5E
:10043C007B267D797F42121B167B107D2A7F421210
:10044C001B167BC27D2B7F42121B16E4FB12064A45
:10045C007B047D3A7F42121B1612079A7B037D198F
:10046C007F42121B167B7B7D1A7F42121B167D2A44
:10047C001206797D2B7F42121B167B017D187F4261
:10048C00121B167B057D661206D77B877D4F7F423C
:10049C00121B167B687D507F42121B167B1E7D51F2
:1004AC007F42121B167B157D527F42121B167B7CE2
:1004BC007D5312076A7D547F42121B167B1E7D589A
:1004CC001206227BE07D761207237D247F42121BCD
:1004DC00167B387D257F42121B167B917D267F4231
:1004EC00121B167D5512075A1206EF7D661206A5D1
:1004FC007B107D627F42121B167B0B7D637F421249
:10050C001B167B077D657F42121B167B0F7D6412C9
:10051C0006D77B097D7A7F42121B167B0C7D7B7F75
:10052C0042121B167B167D7C7F42121B167B287D8C
:10053C007D7F42121B167B487D7E7F42121B167BF1
:10054C00577D7F7F42121B167B647D807F42121B7E
:10055C00167B717D817F42121B167B7E7D827F42D2
:10056C00121B167B897D837F42121B167B947D8424
:10057C007F42121B167BA87D857F42121B167BBA0D
:10058C007D867F42121B167BD77D877F42121B16FE
:10059C007BEC7D887F42121B167BF97D897F421292
:1005AC001B167B207D157F42121B167B8012075277
:1005BC00E42410F530E43403F52F7D1712075A7D2F
:1005CC001812078A7B807D327F42121B167B0A7DB4
:1005DC00037F42121B167F057E001212B81206C54D
:1005EC00E4FBFD1207927D011207927D027F4212FD
:1005FC001B167B407D6A7F42121B161207097B0A71
:0D060C001206311207097B321206317F0100
:1006190022E4FB7F42121B16227F42121B16E4FBC7
:100629007D417F42121B16227D107F42121B16E468
:10063900FB7D077F42121B1622E4FB7F42121B1629
:10064900227D157F42121B16227F42121B16E4FBE4
:100659007D967F42121B16227B0A7F42121B1622AD
:100669007B407F42121B16227B107F42121B1622EF
:10067900E4FB7F42121B16E4FB227B807DC87F428C
:10068900121B16227B017F42121B16227B027F421C
:10069900121B16227B0B7F42121B1622E4FB7F42A0
:1006A900121B16227B0C7F42121B16227B207F42D3
:1006B900121B16227B037F42121B1622E4FB7D13B9
:1006C9007F42121B16227BF07F42121B16227F42A9
:1006D900121B167B0E7D947F42121B167B107D9593
:1006E9007F42121B16227B407D567F42121B162227
:1006F9007B017F42121B16227B097F42121B1622A5
:10070900E4FB7D047F42121B16227B807F42121B71
:1007190016227B307F42121B16227F42121B167B48
:1007290040227B0A7F42121B16227B0F7F42121B3B
:1007390016227B117F42121B16227F42121B16E4DE
:10074900227B0D7F42121B16227D117F42121B163E
:1007590022E4FB7F42121B16227B027F42121B16E8
:10076900227F42121B167B91227B0A7F42121B16A3
:10077900227B047F42121B16227DC87F42121B1660
:10078900227B627F42121B16227F42121B167B407C
:0B079900227B087D3D7F42121B1622D0
:100090001201000200000040D1160204000001021B
:1000A00000010A06000200000040010009022000D1
:1000B00001010080960904000002FF00000007050E
:1000C00082034000010705860200020009072000A4
:1000D00001010080960904000002FF0000000705EE
:1000E0008203400001070586024000000403090462
:1000F0001003530075007000720065006D00610010
:100100002A03530075007000720065006D006100E5
:100110002000420069006F004D0069006E00690018
:0C012000200050006C007500730000000F
:10198300121C8943B2045380FB2243B208438008EC
:10199300121C8953B2FB2253B2F75380F722121A57
:1019A30069AB39053BE53BAA3A22121C895380F700
:0119B3002211
:021C8900002237
:101C2F0053B2FBE58030E2FB4380081219AD121965
:021C3F008322FE
:101BF5005380F7121993E58030E2FB121C8943806C
:041C050008021C892C
:101A6900E4FFFE53B2FBE58030E2FB121C89EF254F
:101A7900E0FFE58030E303430701121986121C8950
:041A89000EBE08DFA6
:011A8D002236
:10177C00E4FEEF30E70543800880035380F712192D
:10178C0093E58030E2FBEF25E0FF1219830EBE08D3
:10179C00E112199A53B2FBE58030E2FB121C89E589
:1017AC008020E304C2108002D210121986121C8908
:0817BC0043B208A210E433FF60
:0117C4002202
:02191F00AC0713
:10192100E4FF121C2FAF0412177CAF0512177C12B3
:101931001C2FEC04FF12177C12199A121A69121942
:0F1941008DE58030E2FB1219831219AD121BF5F0
:011950002274
:061450008F308A338B345B
:1014560085353985363A85373BE5344533607A122A
:101466001C2FAF3012177CAF0412177CAF05121772
:101476007C121C2FE53004FF12177C12199AE4F532
:1014860038E53424FFFFE53334FFFEC3E5389FE437
:101496009E50281219A17002053A14F9EF1213E5AD
:1014A60043B2085380F7121993E58030E2FB121914
:1014B60083121C8912199A053880C61219A1700266
:1014C600053A14F9EF1213E512198DE58030E2FBA7
:0914D6001219831219AD121BF565
:0114DF0022EA
:101B1600AE07AC03121C2F12177CAF0512177CAF51
:0E1B26000412177C121BF57F017E000212B81C
:0A16C5008C318D328A338B34A90773
:1016CF00E9B4AE03D38001C3920FE4FDFC121C2FCB
:1016DF00AF0112177C300F0EEF600B0DBD00010C28
:1016EF00BC13EABD88E7E531FF12177CAF32121742
:1016FF007CE4FCFDC3ED9534EC95335018AB35AA63
:10170F0036A9378D828C831213B8FF12177C0DBD4B
:0F171F0000010C80DF121BF57F017E000212B863
:081BAC00025200000254000087
:03000B00021AF7DF
:101AF700C0E0C28C758CF8758A2F0553E5537002C8
:0F1B070005520555E55570020554D28CD0E032D9
:101C4100758CF8758A2F438901D28CD2A9D2AFC283
:021C51008C22E3
:101A120090E682E030E004E020E60B90E682E030DF
:101A2200E119E030E71590E680E04401F07F147E92
:0C1A3200001212B890E680E054FEF02292
:1019E300300F0990E680E0440AF0800790E680E03B
:1019F3004408F07FDC7E051212B890E65D74FFF0B8
:0F1A030090E65FF05391EF90E680E054F7F02209
:1012B8008E388F3990E600E054187012E539240111
:1012C800FFE43538C313F538EF13F539801590E688
:1012D80000E05418FFBF100BE53925E0F539E53873
:1012E80033F538E5391539AE38700215384E6005D2
:0612F800121AA280EE2292
:081C7700E4F551D2E9D2AF22DD
:10187F00AD0790E678E020E6F9C2E990E678E0441B
:10188F0080F0ED25E090E679F090E678E030E0F931
:10189F0090E678E04440F090E678E020E6F990E6B4
:0818AF0078E030E1D6D2E92215
:10195100AC0790E678E020E6F9E551702390E6784F
:10196100E04480F0EC25E090E679F08D4CAF03A9DE
:1019710007754D018A4E894FE4F550755101D32207
:02198100C3227F
:1018EB00AC0790E678E020E6F9E551702590E678B4
:1018FB00E04480F0EC25E0440190E679F08D4CAFAC
:10190B0003A907754D018A4E894FE4F550755103B4
:04191B00D322C322EE
:03004B00020F6E33
:100F6E00C0E0C083C082C085C084C086758600C0C4
:100F7E00D075D000C000C001C002C003C006C007BB
:100F8E0090E678E030E20675510602105890E67849
:100F9E00E020E10CE551640260067551070210581D
:100FAE00E55124FE605F14603624FE700302104982
:100FBE0024FC700302105524086003021058AB4D38
:100FCE00AA4EA94FAF5005508F827583001213B8E9
:100FDE0090E679F0E550654C7070755105806B9018
:100FEE00E679E0AB4DAA4EA94FAE508E82758300C6
:100FFE001213F7755102E54C6401704E90E678E0DD
:10100E004420F08045E54C24FEB5500790E678E08C
:10101E004420F0E54C14B5500A90E678E04440F0D8
:10102E0075510090E679E0AB4DAA4EA94FAE508EA9
:10103E00827583001213F70550800F90E678E04416
:10104E0040F075510080037551005391DFD007D0E9
:10105E0006D003D002D001D000D0D0D086D084D01C
:08106E0085D082D083D0E0326E
:021A3E00A907F6
:101A4000AE4AAF4B8F828E83A3E064037017AD0163
:101A500019ED7001228F828E83E07C002FFDEC3E19
:081A6000FEAF0580DFE4FEFF8C
:011A6800225B
:101B34001218EBE55124FA600E146006240770F3C2
:0C1B4400D322E4F551D322E4F551D32262
:101B5000121951E55124FA600E146006240770F33F
:0C1B6000D322E4F551D322E4F551D32246
:101A8E0090E682E044C0F090E681F04387010000CA
:041A9E000000002222
:101AA2007400F58690FDA57C05A3E582458370F957
:011AB2002211
:030000000214E007
:0C14E000787FE4F6D8FD758155021527D1
:1013B800BB010CE58229F582E5833AF583E02250EA
:1013C80006E92582F8E622BBFE06E92582F8E22234
:0D13D800E58229F582E5833AF583E493224E
:1013E500BB010689828A83F0225002F722BBFE01E7
:0213F500F322E1
:1013F700F8BB010DE58229F582E5833AF583E8F02C
:10140700225006E92582C8F622BBFE05E92582C8D7
:02141700F222BF
:10141900EB9FF5F0EA9E42F0E99D42F0E89C45F029
:0114290022A0
:10142A00D083D082F8E4937012740193700DA3A351
:10143A0093F8740193F5828883E473740293686065
:06144A00EFA3A3A380DF65
:1014EC00020C06E493A3F8E493A34003F68001F204
:1014FC0008DFF48029E493A3F85407240CC8C33301
:10150C00C4540F4420C8834004F456800146F6DFCF
:10151C00E4800B0102040810204080901B9DE47EA7
:10152C00019360BCA3FF543F30E509541FFEE493C4
:10153C00A360010ECF54C025E060A840B8E493A38B
:10154C00FAE493A3F8E493A3C8C582C8CAC583CAB6
:10155C00F0A3C8C582C8CAC583CADFE9DEE780BE6E
:011BB4000030
:00000001FF
